{
  "_format": "hh-sol-artifact-1",
  "contractName": "ContactBook",
  "sourceName": "contracts/ContactBook.sol",
  "abi": [
    {
      "inputs": [],
      "stateMutability": "nonpayable",
      "type": "constructor"
    },
    {
      "inputs": [
        {
          "internalType": "string",
          "name": "_name",
          "type": "string"
        },
        {
          "internalType": "address",
          "name": "_wallet",
          "type": "address"
        }
      ],
      "name": "addContact",
      "outputs": [],
      "stateMutability": "nonpayable",
      "type": "function"
    },
    {
      "inputs": [],
      "name": "getContacts",
      "outputs": [
        {
          "components": [
            {
              "internalType": "string",
              "name": "name",
              "type": "string"
            },
            {
              "internalType": "address",
              "name": "wallet",
              "type": "address"
            }
          ],
          "internalType": "struct ContactBook.Contact[]",
          "name": "",
          "type": "tuple[]"
        }
      ],
      "stateMutability": "view",
      "type": "function"
    },
    {
      "inputs": [
        {
          "internalType": "uint256",
          "name": "_index",
          "type": "uint256"
        }
      ],
      "name": "removeContact",
      "outputs": [],
      "stateMutability": "nonpayable",
      "type": "function"
    }
  ],
  "bytecode": "0x608060405234801561001057600080fd5b50600080546001600160a01b031916331790556108e8806100326000396000f3fe608060405234801561001057600080fd5b50600436106100415760003560e01c8063603d57a114610046578063708adcd51461005b578063db920b771461006e575b600080fd5b61005961005436600461040a565b61008c565b005b610059610069366004610455565b6101f7565b6100766102b0565b6040516100839190610517565b60405180910390f35b6000546001600160a01b031633146100bf5760405162461bcd60e51b81526004016100b6906105c5565b60405180910390fd5b60015481106101075760405162461bcd60e51b815260206004820152601460248201527324b73232bc1037baba1037b3103137bab732399760611b60448201526064016100b6565b805b60018054610117919061061d565b8110156101ae57600161012a8282610636565b8154811061013a5761013a610649565b90600052602060002090600202016001828154811061015b5761015b610649565b600091825260209091206002909102018061017683826106e8565b50600191820154910180546001600160a01b0319166001600160a01b03909216919091179055806101a6816107c9565b915050610109565b5060018054806101c0576101c06107e2565b600082815260208120600019909201916002830201906101e082826103b4565b5060010180546001600160a01b0319169055905550565b6000546001600160a01b031633146102215760405162461bcd60e51b81526004016100b6906105c5565b604080518082019091528281526001600160a01b0382166020820152600180548082018255600091909152815160029091027fb10e2d527612073b26eecdfd717e6a320cf44b4afac2b0732d9fcbe2b7fa0cf60190819061028290826107f8565b5060209190910151600190910180546001600160a01b0319166001600160a01b039092169190911790555050565b60606001805480602002602001604051908101604052809291908181526020016000905b828210156103ab57838290600052602060002090600202016040518060400160405290816000820180546103079061065f565b80601f01602080910402602001604051908101604052809291908181526020018280546103339061065f565b80156103805780601f1061035557610100808354040283529160200191610380565b820191906000526020600020905b81548152906001019060200180831161036357829003601f168201915b50505091835250506001918201546001600160a01b03166020918201529183529290920191016102d4565b50505050905090565b5080546103c09061065f565b6000825580601f106103d0575050565b601f0160209004906000526020600020908101906103ee91906103f1565b50565b5b8082111561040657600081556001016103f2565b5090565b60006020828403121561041c57600080fd5b5035919050565b634e487b7160e01b600052604160045260246000fd5b80356001600160a01b038116811461045057600080fd5b919050565b6000806040838503121561046857600080fd5b823567ffffffffffffffff8082111561048057600080fd5b818501915085601f83011261049457600080fd5b8135818111156104a6576104a6610423565b604051601f8201601f19908116603f011681019083821181831017156104ce576104ce610423565b816040528281528860208487010111156104e757600080fd5b82602086016020830137600060208483010152809650505050505061050e60208401610439565b90509250929050565b60006020808301818452808551808352604092508286019150828160051b8701018488016000805b848110156105b657603f198a8503018652825180518886528051808a880152845b8181101561057c578281018c0151888201606001528b01610560565b508681016060908101869052928b01516001600160a01b03168b880152978a0197601f01601f19169095010193509187019160010161053f565b50919998505050505050505050565b60208082526022908201527f4f6e6c79206f776e65722063616e2063616c6c20746869732066756e6374696f604082015261371760f11b606082015260800190565b634e487b7160e01b600052601160045260246000fd5b8181038181111561063057610630610607565b92915050565b8082018082111561063057610630610607565b634e487b7160e01b600052603260045260246000fd5b600181811c9082168061067357607f821691505b60208210810361069357634e487b7160e01b600052602260045260246000fd5b50919050565b601f8211156106e357600081815260208120601f850160051c810160208610156106c05750805b601f850160051c820191505b818110156106df578281556001016106cc565b5050505b505050565b8181036106f3575050565b6106fd825461065f565b67ffffffffffffffff81111561071557610715610423565b61072981610723845461065f565b84610699565b6000601f82116001811461075d57600083156107455750848201545b600019600385901b1c1916600184901b1784556107c2565b600085815260209020601f19841690600086815260209020845b838110156107975782860154825560019586019590910190602001610777565b50858310156107b55781850154600019600388901b60f8161c191681555b50505060018360011b0184555b5050505050565b6000600182016107db576107db610607565b5060010190565b634e487b7160e01b600052603160045260246000fd5b815167ffffffffffffffff81111561081257610812610423565b61082081610723845461065f565b602080601f831160018114610855576000841561083d5750858301515b600019600386901b1c1916600185901b1785556106df565b600085815260208120601f198616915b8281101561088457888601518255948401946001909101908401610865565b50858210156108a25787850151600019600388901b60f8161c191681555b5050505050600190811b0190555056fea26469706673582212202aa08549b77c4c2b688aee5eca1f5af0a7889d5a80a2123f1d20b34da7daf4a864736f6c63430008130033",
  "linkReferences": {},
  "deployedLinkReferences": {}
}